{
  "contractName": "Ballot",
  "abi": [
    {
      "inputs": [
        {
          "internalType": "uint256",
          "name": "startTime_",
          "type": "uint256"
        },
        {
          "internalType": "uint256",
          "name": "endTime_",
          "type": "uint256"
        }
      ],
      "stateMutability": "nonpayable",
      "type": "constructor"
    },
    {
      "inputs": [
        {
          "internalType": "uint256",
          "name": "",
          "type": "uint256"
        }
      ],
      "name": "candidates",
      "outputs": [
        {
          "internalType": "string",
          "name": "name",
          "type": "string"
        },
        {
          "internalType": "string",
          "name": "partyShortcut",
          "type": "string"
        },
        {
          "internalType": "string",
          "name": "partyFlag",
          "type": "string"
        },
        {
          "internalType": "uint256",
          "name": "nominationNumber",
          "type": "uint256"
        },
        {
          "internalType": "uint8",
          "name": "stateCode",
          "type": "uint8"
        },
        {
          "internalType": "uint8",
          "name": "constituencyCode",
          "type": "uint8"
        }
      ],
      "stateMutability": "view",
      "type": "function",
      "constant": true
    },
    {
      "inputs": [
        {
          "internalType": "uint256",
          "name": "voterNidNumber",
          "type": "uint256"
        }
      ],
      "name": "getCandidateList",
      "outputs": [
        {
          "components": [
            {
              "internalType": "string",
              "name": "name",
              "type": "string"
            },
            {
              "internalType": "string",
              "name": "partyShortcut",
              "type": "string"
            },
            {
              "internalType": "string",
              "name": "partyFlag",
              "type": "string"
            },
            {
              "internalType": "uint256",
              "name": "nominationNumber",
              "type": "uint256"
            },
            {
              "internalType": "uint8",
              "name": "stateCode",
              "type": "uint8"
            },
            {
              "internalType": "uint8",
              "name": "constituencyCode",
              "type": "uint8"
            }
          ],
          "internalType": "struct Types.Candidate[]",
          "name": "",
          "type": "tuple[]"
        }
      ],
      "stateMutability": "view",
      "type": "function",
      "constant": true
    },
    {
      "inputs": [
        {
          "internalType": "uint256",
          "name": "voterNidNumber",
          "type": "uint256"
        }
      ],
      "name": "isVoterEligible",
      "outputs": [
        {
          "internalType": "bool",
          "name": "voterEligible_",
          "type": "bool"
        }
      ],
      "stateMutability": "view",
      "type": "function",
      "constant": true
    },
    {
      "inputs": [
        {
          "internalType": "uint256",
          "name": "voterNidNumber",
          "type": "uint256"
        }
      ],
      "name": "didCurrentVoterVoted",
      "outputs": [
        {
          "internalType": "bool",
          "name": "userVoted_",
          "type": "bool"
        },
        {
          "components": [
            {
              "internalType": "string",
              "name": "name",
              "type": "string"
            },
            {
              "internalType": "string",
              "name": "partyShortcut",
              "type": "string"
            },
            {
              "internalType": "string",
              "name": "partyFlag",
              "type": "string"
            },
            {
              "internalType": "uint256",
              "name": "nominationNumber",
              "type": "uint256"
            },
            {
              "internalType": "uint8",
              "name": "stateCode",
              "type": "uint8"
            },
            {
              "internalType": "uint8",
              "name": "constituencyCode",
              "type": "uint8"
            }
          ],
          "internalType": "struct Types.Candidate",
          "name": "candidate_",
          "type": "tuple"
        }
      ],
      "stateMutability": "view",
      "type": "function",
      "constant": true
    },
    {
      "inputs": [
        {
          "internalType": "uint256",
          "name": "nominationNumber",
          "type": "uint256"
        },
        {
          "internalType": "uint256",
          "name": "voterNidNumber",
          "type": "uint256"
        },
        {
          "internalType": "uint256",
          "name": "currentTime_",
          "type": "uint256"
        }
      ],
      "name": "vote",
      "outputs": [],
      "stateMutability": "nonpayable",
      "type": "function"
    },
    {
      "inputs": [],
      "name": "getVotingEndTime",
      "outputs": [
        {
          "internalType": "uint256",
          "name": "endTime_",
          "type": "uint256"
        }
      ],
      "stateMutability": "view",
      "type": "function",
      "constant": true
    },
    {
      "inputs": [
        {
          "internalType": "uint256",
          "name": "startTime_",
          "type": "uint256"
        },
        {
          "internalType": "uint256",
          "name": "currentTime_",
          "type": "uint256"
        }
      ],
      "name": "updateVotingStartTime",
      "outputs": [],
      "stateMutability": "nonpayable",
      "type": "function"
    },
    {
      "inputs": [
        {
          "internalType": "uint256",
          "name": "endTime_",
          "type": "uint256"
        },
        {
          "internalType": "uint256",
          "name": "currentTime_",
          "type": "uint256"
        }
      ],
      "name": "extendVotingTime",
      "outputs": [],
      "stateMutability": "nonpayable",
      "type": "function"
    },
    {
      "inputs": [
        {
          "internalType": "uint256",
          "name": "currentTime_",
          "type": "uint256"
        }
      ],
      "name": "getResults",
      "outputs": [
        {
          "components": [
            {
              "internalType": "string",
              "name": "name",
              "type": "string"
            },
            {
              "internalType": "string",
              "name": "partyShortcut",
              "type": "string"
            },
            {
              "internalType": "string",
              "name": "partyFlag",
              "type": "string"
            },
            {
              "internalType": "uint256",
              "name": "voteCount",
              "type": "uint256"
            },
            {
              "internalType": "uint256",
              "name": "nominationNumber",
              "type": "uint256"
            },
            {
              "internalType": "uint8",
              "name": "stateCode",
              "type": "uint8"
            },
            {
              "internalType": "uint8",
              "name": "constituencyCode",
              "type": "uint8"
            }
          ],
          "internalType": "struct Types.Results[]",
          "name": "",
          "type": "tuple[]"
        }
      ],
      "stateMutability": "view",
      "type": "function",
      "constant": true
    }
  ],
  "bytecode": "0x60806040523480156200001157600080fd5b506040516200219338038062002193833981016040819052620000349162000951565b6200003e62000069565b620000486200048a565b600591909155600655600480546001600160a01b0319163317905562000b25565b60408051600e8082526101e08201909252600091816020015b620000c26040518060c0016040528060608152602001606081526020016060815260200160008152602001600060ff168152602001600060ff1681525090565b815260200190600190039081620000825790505090506040518060c001604052806040518060400160405280600a8152602001694869726f6b2052616a6160b01b81525081526020016040518060400160405280600381526020016205444560ec1b81525081526020016040518060600160405280602e815260200162002165602e9139815264a96106e5a66020820152600a60408201526001606090910152815182906000906200017857620001786200098c565b60200260200101819052506040518060c001604052806040518060400160405280600e81526020016d27b734b5b2ba10283930b73a37b960911b815250815260200160405180604001604052806005815260200164059535243560dc1b81525081526020016040518060600160405280602e815260200162002165602e9139815264c27e5da76e6020820152600a604082015260016060909101819052825183919081106200022b576200022b6200098c565b60200260200101819052506040518060c00160405280604051806040016040528060088152602001674176656e6765727360c01b81525081526020016040518060400160405280600381526020016205444560ec1b81525081526020016040518060600160405280602e815260200162002165602e9139815264e19f3e55b76020820152600a60408201526002606090910181905282518391908110620002d657620002d66200098c565b602002602001018190525060005b815181101562000486578181815181106200030357620003036200098c565b6020026020010151600260008484815181106200032457620003246200098c565b6020026020010151606001518152602001908152602001600020600082015181600001908162000355919062000a31565b50602082015160018201906200036c908262000a31565b506040820151600282019062000383908262000a31565b506060820151600382015560808201516004909101805460a09093015160ff9081166101000261ffff199094169216919091179190911790558151600090839083908110620003d657620003d66200098c565b602090810291909101810151825460018101845560009384529190922082516005909202019081906200040a908262000a31565b506020820151600182019062000421908262000a31565b506040820151600282019062000438908262000a31565b506060820151600382015560808201516004909101805460a09093015160ff9081166101000261ffff19909416921691909117919091179055806200047d8162000afd565b915050620002e4565b5050565b6040805160e08101825264b1081230bf80825282518084018452600681526529b0b13134b960d11b602082810191909152808401918252602a94840194909452600a606084015260026080840152600160a08401819052600060c0850181905292909252925280517f443e070219c8cb3c0f3ee528dd5680b5cf16ddda358bf5d2d95a895459fcd23290815591519091907f443e070219c8cb3c0f3ee528dd5680b5cf16ddda358bf5d2d95a895459fcd2339062000549908262000a31565b5060408281015160028301805460608087015160808089015160a0808b0151151563010000000263ff0000001960ff93841662010000021663ffff0000199584166101000261ffff1990981693909916929092179590951792909216959095171790925560c095860151600390950194909455825160e08101845264d392fd0ce680825284518086018652600d81526c52697368696b6573682044617360981b602082810191909152808401918252601996840196909652600b938301939093526001938201849052948101839052600095810186905293909452905280517fe37e3282cf946d42746d01da27e04c4fe48ad3543cee63ab42de9b0f273c984e90815591519091907fe37e3282cf946d42746d01da27e04c4fe48ad3543cee63ab42de9b0f273c984f906200067f908262000a31565b5060408281015160028301805460608087015160808089015160a0808b0151151563010000000263ff0000001960ff93841662010000021663ffff0000199584166101000261ffff1990981693909916929092179590951792909216959095171790925560c095860151600390950194909455825160e08101845264b55b93624480825284518086018652600981526812cb9048135d5ada5d60ba1b602082810191909152808401918252602596840196909652600b938301939093526001938201849052948101839052600095810186905293909452905280517f30d4b24505605762448e86fccc156aa1978eeea8d82899cffd4384c78b10c3ff90815591519091907f30d4b24505605762448e86fccc156aa1978eeea8d82899cffd4384c78b10c40090620007b1908262000a31565b50604082810151600280840180546060808801516080808a015160a0808c0151151563010000000263ff0000001960ff93841662010000021663ffff0000199584166101000261ffff1990981693909a16929092179590951792909216969096171790925560c096870151600390960195909555835160e081018552645b84e787e780825285518087018752600b8082526a416d6972756c204966747960a81b602083810191909152808501928352601d988501989098529383019390935293810192909252600194820185905260009582018690529190945291905281517f25960912c3b6edab299da1dc45160cd1fd55e1029d7207fb8128077bd9e85b9c90815590517f25960912c3b6edab299da1dc45160cd1fd55e1029d7207fb8128077bd9e85b9d90620008e4908262000a31565b5060408201516002820180546060850151608086015160a0870151151563010000000263ff0000001960ff92831662010000021663ffff0000199383166101000261ffff19909516929096169190911792909217169290921791909117905560c090910151600390910155565b600080604083850312156200096557600080fd5b505080516020909101519092909150565b634e487b7160e01b600052604160045260246000fd5b634e487b7160e01b600052603260045260246000fd5b600181811c90821680620009b757607f821691505b602082108103620009d857634e487b7160e01b600052602260045260246000fd5b50919050565b601f82111562000a2c57600081815260208120601f850160051c8101602086101562000a075750805b601f850160051c820191505b8181101562000a285782815560010162000a13565b5050505b505050565b81516001600160401b0381111562000a4d5762000a4d62000976565b62000a658162000a5e8454620009a2565b84620009de565b602080601f83116001811462000a9d576000841562000a845750858301515b600019600386901b1c1916600185901b17855562000a28565b600085815260208120601f198616915b8281101562000ace5788860151825594840194600190910190840162000aad565b508582101562000aed5787850151600019600388901b60f8161c191681555b5050505050600190811b01905550565b60006001820162000b1e57634e487b7160e01b600052601160045260246000fd5b5060010190565b6116308062000b356000396000f3fe608060405234801561001057600080fd5b50600436106100935760003560e01c806381a60c0d1161006657806381a60c0d1461011c5780638a6655d61461013c578063b1bf87b01461014f578063b9d8455214610160578063dce8d8a31461017357600080fd5b80633477ee2e146100985780635d816e22146100c65780635e23c37c146100db578063618bde0a146100fc575b600080fd5b6100ab6100a6366004611279565b610196565b6040516100bd969594939291906112d8565b60405180910390f35b6100d96100d4366004611334565b610381565b005b6100ee6100e9366004611279565b6103ba565b6040516100bd9291906113cf565b61010f61010a366004611279565b610622565b6040516100bd91906113f2565b61012f61012a366004611279565b610a59565b6040516100bd9190611454565b6100d961014a366004611526565b610e2e565b6006546040519081526020016100bd565b6100d961016e366004611334565b61120b565b610186610181366004611279565b611236565b60405190151581526020016100bd565b600081815481106101a657600080fd5b90600052602060002090600502016000915090508060000180546101c990611552565b80601f01602080910402602001604051908101604052809291908181526020018280546101f590611552565b80156102425780601f1061021757610100808354040283529160200191610242565b820191906000526020600020905b81548152906001019060200180831161022557829003601f168201915b50505050509080600101805461025790611552565b80601f016020809104026020016040519081016040528092919081815260200182805461028390611552565b80156102d05780601f106102a5576101008083540402835291602001916102d0565b820191906000526020600020905b8154815290600101906020018083116102b357829003601f168201915b5050505050908060020180546102e590611552565b80601f016020809104026020016040519081016040528092919081815260200182805461031190611552565b801561035e5780601f106103335761010080835404028352916020019161035e565b820191906000526020600020905b81548152906001019060200180831161034157829003601f168201915b50505050600383015460049093015491929160ff80821692506101009091041686565b6004546001600160a01b0316331461039857600080fd5b80600554106103a657600080fd5b80600654116103b457600080fd5b50600655565b60006103fb6040518060c0016040528060608152602001606081526020016060815260200160008152602001600060ff168152602001600060ff1681525090565b600083815260016020526040902060030154158015925061061d576000838152600160209081526040808320600301548352600290915290819020815160c0810190925280548290829061044e90611552565b80601f016020809104026020016040519081016040528092919081815260200182805461047a90611552565b80156104c75780601f1061049c576101008083540402835291602001916104c7565b820191906000526020600020905b8154815290600101906020018083116104aa57829003601f168201915b505050505081526020016001820180546104e090611552565b80601f016020809104026020016040519081016040528092919081815260200182805461050c90611552565b80156105595780601f1061052e57610100808354040283529160200191610559565b820191906000526020600020905b81548152906001019060200180831161053c57829003601f168201915b5050505050815260200160028201805461057290611552565b80601f016020809104026020016040519081016040528092919081815260200182805461059e90611552565b80156105eb5780601f106105c0576101008083540402835291602001916105eb565b820191906000526020600020905b8154815290600101906020018083116105ce57829003601f168201915b50505091835250506003820154602082015260049091015460ff80821660408401526101009091041660609091015290505b915091565b6000818152600160205260408120606091805b6000548110156106e4576000818154811061065257610652611586565b60009182526020909120600460059092020101546002840154610100900460ff90811691161480156106bf57506000818154811061069257610692611586565b6000918252602090912060046005909202010154600284015462010000900460ff90811661010090920416145b156106d257816106ce816115b2565b9250505b806106dc816115b2565b915050610635565b5060008167ffffffffffffffff811115610700576107006115cb565b60405190808252806020026020018201604052801561077057816020015b61075d6040518060c0016040528060608152602001606081526020016060815260200160008152602001600060ff168152602001600060ff1681525090565b81526020019060019003908161071e5790505b5090506000805b600054811015610a4e576000818154811061079457610794611586565b60009182526020909120600460059092020101546002860154610100900460ff90811691161480156108015750600081815481106107d4576107d4611586565b6000918252602090912060046005909202010154600286015462010000900460ff90811661010090920416145b15610a3c576000818154811061081957610819611586565b90600052602060002090600502016040518060c001604052908160008201805461084290611552565b80601f016020809104026020016040519081016040528092919081815260200182805461086e90611552565b80156108bb5780601f10610890576101008083540402835291602001916108bb565b820191906000526020600020905b81548152906001019060200180831161089e57829003601f168201915b505050505081526020016001820180546108d490611552565b80601f016020809104026020016040519081016040528092919081815260200182805461090090611552565b801561094d5780601f106109225761010080835404028352916020019161094d565b820191906000526020600020905b81548152906001019060200180831161093057829003601f168201915b5050505050815260200160028201805461096690611552565b80601f016020809104026020016040519081016040528092919081815260200182805461099290611552565b80156109df5780601f106109b4576101008083540402835291602001916109df565b820191906000526020600020905b8154815290600101906020018083116109c257829003601f168201915b50505091835250506003820154602082015260049091015460ff8082166040840152610100909104166060909101528351849084908110610a2257610a22611586565b60200260200101819052508180610a38906115b2565b9250505b80610a46816115b2565b915050610777565b509095945050505050565b60608160065410610a6957600080fd5b6000805467ffffffffffffffff811115610a8557610a856115cb565b604051908082528060200260200182016040528015610afc57816020015b610ae96040518060e001604052806060815260200160608152602001606081526020016000815260200160008152602001600060ff168152602001600060ff1681525090565b815260200190600190039081610aa35790505b50905060005b600054811015610e27576040518060e0016040528060008381548110610b2a57610b2a611586565b90600052602060002090600502016000018054610b4690611552565b80601f0160208091040260200160405190810160405280929190818152602001828054610b7290611552565b8015610bbf5780601f10610b9457610100808354040283529160200191610bbf565b820191906000526020600020905b815481529060010190602001808311610ba257829003601f168201915b5050505050815260200160008381548110610bdc57610bdc611586565b90600052602060002090600502016001018054610bf890611552565b80601f0160208091040260200160405190810160405280929190818152602001828054610c2490611552565b8015610c715780601f10610c4657610100808354040283529160200191610c71565b820191906000526020600020905b815481529060010190602001808311610c5457829003601f168201915b5050505050815260200160008381548110610c8e57610c8e611586565b90600052602060002090600502016002018054610caa90611552565b80601f0160208091040260200160405190810160405280929190818152602001828054610cd690611552565b8015610d235780601f10610cf857610100808354040283529160200191610d23565b820191906000526020600020905b815481529060010190602001808311610d0657829003601f168201915b5050505050815260200160036000808581548110610d4357610d43611586565b906000526020600020906005020160030154815260200190815260200160002054815260200160008381548110610d7c57610d7c611586565b906000526020600020906005020160030154815260200160008381548110610da657610da6611586565b600091825260208083206004600590930201919091015460ff168352815492019184908110610dd757610dd7611586565b6000918252602090912060059091020160040154610100900460ff1690528251839083908110610e0957610e09611586565b60200260200101819052508080610e1f906115b2565b915050610b02565b5092915050565b80600554811015610e3e57600080fd5b600654811115610e4d57600080fd5b82846000600160008481526020019081526020016000206040518060e001604052908160008201548152602001600182018054610e8990611552565b80601f0160208091040260200160405190810160405280929190818152602001828054610eb590611552565b8015610f025780601f10610ed757610100808354040283529160200191610f02565b820191906000526020600020905b815481529060010190602001808311610ee557829003601f168201915b505050918352505060028281015460ff808216602080860191909152610100830482166040808701919091526201000084048316606087015263010000009093049091161515608085015260039094015460a09093019290925260008681529252808220815160c081019092528054939450919290919082908290610f8690611552565b80601f0160208091040260200160405190810160405280929190818152602001828054610fb290611552565b8015610fff5780601f10610fd457610100808354040283529160200191610fff565b820191906000526020600020905b815481529060010190602001808311610fe257829003601f168201915b5050505050815260200160018201805461101890611552565b80601f016020809104026020016040519081016040528092919081815260200182805461104490611552565b80156110915780601f1061106657610100808354040283529160200191611091565b820191906000526020600020905b81548152906001019060200180831161107457829003601f168201915b505050505081526020016002820180546110aa90611552565b80601f01602080910402602001604051908101604052809291908181526020018280546110d690611552565b80156111235780601f106110f857610100808354040283529160200191611123565b820191906000526020600020905b81548152906001019060200180831161110657829003601f168201915b50505091835250506003820154602082015260049091015460ff808216604080850191909152610100909204811660609093019290925284015191925060129116101561116f57600080fd5b8160a0015161117d57600080fd5b60c08201511561118c57600080fd5b816060015160ff16816080015160ff161480156111b65750816080015160ff168160a0015160ff16145b6111bf57600080fd5b600087815260016020818152604080842060039081018d90558c855290915290912054906111ee9082906115e1565b6000998a5260036020526040909920989098555050505050505050565b6004546001600160a01b0316331461122257600080fd5b806005541161123057600080fd5b50600555565b60008181526001602052604081206002810154601260ff90911610801590611269575060028101546301000000900460ff165b1561127357600191505b50919050565b60006020828403121561128b57600080fd5b5035919050565b6000815180845260005b818110156112b85760208185018101518683018201520161129c565b506000602082860101526020601f19601f83011685010191505092915050565b60c0815260006112eb60c0830189611292565b82810360208401526112fd8189611292565b905082810360408401526113118188611292565b6060840196909652505060ff9283166080820152911660a0909101529392505050565b6000806040838503121561134757600080fd5b50508035926020909101359150565b6000815160c0845261136b60c0850182611292565b9050602083015184820360208601526113848282611292565b9150506040830151848203604086015261139e8282611292565b9150506060830151606085015260ff608084015116608085015260ff60a08401511660a08501528091505092915050565b82151581526040602082015260006113ea6040830184611356565b949350505050565b6000602080830181845280855180835260408601915060408160051b870101925083870160005b8281101561144757603f19888603018452611435858351611356565b94509285019290850190600101611419565b5092979650505050505050565b60006020808301818452808551808352604092508286019150828160051b87010184880160005b8381101561151857603f19898403018552815160e081518186526114a182870182611292565b915050888201518582038a8701526114b98282611292565b91505087820151858203898701526114d18282611292565b606084810151908801526080808501519088015260a08085015160ff9081169189019190915260c0948501511693909601929092525050938601939086019060010161147b565b509098975050505050505050565b60008060006060848603121561153b57600080fd5b505081359360208301359350604090920135919050565b600181811c9082168061156657607f821691505b60208210810361127357634e487b7160e01b600052602260045260246000fd5b634e487b7160e01b600052603260045260246000fd5b634e487b7160e01b600052601160045260246000fd5b6000600182016115c4576115c461159c565b5060010190565b634e487b7160e01b600052604160045260246000fd5b808201808211156115f4576115f461159c565b9291505056fea2646970667358221220e5e9dc53f39e7907514a36aac47764dc2be62d6a8a9caeea4850cac93728268b64736f6c6343000811003368747470733a2f2f7777772e616c62642e6f72672f7374617469632f696d616765732f6c6f676f2d656e2e706e67",
  "immutableReferences": {},
  "source": "// SPDX-License-Identifier: GPL-3.0\r\npragma experimental ABIEncoderV2;\r\npragma solidity >=0.4.25 <0.9.0;\r\n\r\nimport \"./Types.sol\";\r\n\r\n\r\ncontract Ballot {\r\n    Types.Candidate[] public candidates;\r\n    mapping(uint256 => Types.Voter) voter;\r\n    mapping(uint256 => Types.Candidate) candidate;\r\n    mapping(uint256 => uint256) internal votesCount;\r\n\r\n    address electionChief;\r\n    uint256 private votingStartTime;\r\n    uint256 private votingEndTime;\r\n\r\n    /**\r\n     * @dev Create a new ballot to choose one of 'candidateNames'\r\n     * @param startTime_ When the voting process will start\r\n     * @param endTime_ When the voting process will end\r\n     */\r\n    constructor(uint256 startTime_, uint256 endTime_) {\r\n        initializeCandidateDatabase_();\r\n        initializeVoterDatabase_();\r\n        votingStartTime = startTime_;\r\n        votingEndTime = endTime_;\r\n        electionChief = msg.sender;\r\n    }\r\n\r\n    /**\r\n     * @dev Get candidate list.\r\n     * @param voterNidNumber NID number of the current voter to send the relevent candidates list\r\n     * @return candidatesList_ All the politicians who participate in the election\r\n     */\r\n    function getCandidateList(uint256 voterNidNumber)\r\n        public\r\n        view\r\n        returns (Types.Candidate[] memory)\r\n    {\r\n        Types.Voter storage voter_ = voter[voterNidNumber];\r\n        uint256 _politicianOfMyConstituencyLength = 0;\r\n\r\n        for (uint256 i = 0; i < candidates.length; i++) {\r\n            if (\r\n                voter_.stateCode == candidates[i].stateCode &&\r\n                voter_.constituencyCode == candidates[i].constituencyCode\r\n            ) _politicianOfMyConstituencyLength++;\r\n        }\r\n        Types.Candidate[] memory cc = new Types.Candidate[](\r\n            _politicianOfMyConstituencyLength\r\n        );\r\n\r\n        uint256 _indx = 0;\r\n        for (uint256 i = 0; i < candidates.length; i++) {\r\n            if (\r\n                voter_.stateCode == candidates[i].stateCode &&\r\n                voter_.constituencyCode == candidates[i].constituencyCode\r\n            ) {\r\n                cc[_indx] = candidates[i];\r\n                _indx++;\r\n            }\r\n        }\r\n        return cc;\r\n    }\r\n\r\n    /**\r\n     * @dev Get candidate list.\r\n     * @param voterNidNumber NID number of the current voter to send the relevent candidates list\r\n     * @return voterEligible_ Whether the voter with provided aadhar is eligible or not\r\n     */\r\n    function isVoterEligible(uint256 voterNidNumber)\r\n        public\r\n        view\r\n        returns (bool voterEligible_)\r\n    {\r\n        Types.Voter storage voter_ = voter[voterNidNumber];\r\n        if (voter_.age >= 18 && voter_.isAlive) voterEligible_ = true;\r\n    }\r\n\r\n    /**\r\n     * @dev Know whether the voter casted their vote or not. If casted get candidate object.\r\n     * @param voterNidNumber NID number of the current voter\r\n     * @return userVoted_ Boolean value which gives whether current voter casted vote or not\r\n     * @return candidate_ Candidate details to whom voter casted his/her vote\r\n     */\r\n    function didCurrentVoterVoted(uint256 voterNidNumber)\r\n        public\r\n        view\r\n        returns (bool userVoted_, Types.Candidate memory candidate_)\r\n    {\r\n        userVoted_ = (voter[voterNidNumber].votedTo != 0);\r\n        if (userVoted_)\r\n            candidate_ = candidate[voter[voterNidNumber].votedTo];\r\n    }\r\n\r\n    /**\r\n     * @dev Give your vote to candidate.\r\n     * @param nominationNumber Nid Number of the candidate\r\n     * @param voterNidNumber Nid Number of the voter to avoid re-entry\r\n     * @param currentTime_ To check if the election has started or not\r\n     */\r\n    function vote(\r\n        uint256 nominationNumber,\r\n        uint256 voterNidNumber,\r\n        uint256 currentTime_\r\n    )\r\n        public\r\n        votingLinesAreOpen(currentTime_)\r\n        isEligibleVote(voterNidNumber, nominationNumber)\r\n    {\r\n        // updating the current voter values\r\n        voter[voterNidNumber].votedTo = nominationNumber;\r\n\r\n        // updates the votes the politician\r\n        uint256 voteCount_ = votesCount[nominationNumber];\r\n        votesCount[nominationNumber] = voteCount_ + 1;\r\n    }\r\n\r\n    /**\r\n     * @dev Gives ending epoch time of voting\r\n     * @return endTime_ When the voting ends\r\n     */\r\n    function getVotingEndTime() public view returns (uint256 endTime_) {\r\n        endTime_ = votingEndTime;\r\n    }\r\n\r\n    /**\r\n     * @dev used to update the voting start & end times\r\n     * @param startTime_ Start time that needs to be updated\r\n     * @param currentTime_ Current time that needs to be updated\r\n     */\r\n    function updateVotingStartTime(uint256 startTime_, uint256 currentTime_)\r\n        public\r\n        isElectionChief\r\n    {\r\n        require(votingStartTime > currentTime_);\r\n        votingStartTime = startTime_;\r\n    }\r\n\r\n    /**\r\n     * @dev To extend the end of the voting\r\n     * @param endTime_ End time that needs to be updated\r\n     * @param currentTime_ Current time that needs to be updated\r\n     */\r\n    function extendVotingTime(uint256 endTime_, uint256 currentTime_)\r\n        public\r\n        isElectionChief\r\n    {\r\n        require(votingStartTime < currentTime_);\r\n        require(votingEndTime > currentTime_);\r\n        votingEndTime = endTime_;\r\n    }\r\n\r\n    /**\r\n     * @dev sends all candidate list with their votes count\r\n     * @param currentTime_ Current epoch time of length 10.\r\n     * @return candidateList_ List of Candidate objects with votes count\r\n     */\r\n    function getResults(uint256 currentTime_)\r\n        public\r\n        view\r\n        returns (Types.Results[] memory)\r\n    {\r\n        require(votingEndTime < currentTime_);\r\n        Types.Results[] memory resultsList_ = new Types.Results[](\r\n            candidates.length\r\n        );\r\n        for (uint256 i = 0; i < candidates.length; i++) {\r\n            resultsList_[i] = Types.Results({\r\n                name: candidates[i].name,\r\n                partyShortcut: candidates[i].partyShortcut,\r\n                partyFlag: candidates[i].partyFlag,\r\n                nominationNumber: candidates[i].nominationNumber,\r\n                stateCode: candidates[i].stateCode,\r\n                constituencyCode: candidates[i].constituencyCode,\r\n                voteCount: votesCount[candidates[i].nominationNumber]\r\n            });\r\n        }\r\n        return resultsList_;\r\n    }\r\n\r\n    /**\r\n     * @notice To check if the voter's age is greater than or equal to 18\r\n     * @param currentTime_ Current epoch time of the voter\r\n     */\r\n    modifier votingLinesAreOpen(uint256 currentTime_) {\r\n        require(currentTime_ >= votingStartTime);\r\n        require(currentTime_ <= votingEndTime);\r\n        _;\r\n    }\r\n\r\n    /**\r\n     * @notice To check if the voter's age is greater than or equal to 18\r\n     * @param voterNid_ Nid number of the current voter\r\n     * @param nominationNumber_ Nomination number of the candidate\r\n     */\r\n    modifier isEligibleVote(uint256 voterNid_, uint256 nominationNumber_) {\r\n        Types.Voter memory voter_ = voter[voterNid_];\r\n        Types.Candidate memory politician_ = candidate[nominationNumber_];\r\n        require(voter_.age >= 18);\r\n        require(voter_.isAlive);\r\n        require(voter_.votedTo == 0);\r\n        require(\r\n            (politician_.stateCode == voter_.stateCode &&\r\n                politician_.constituencyCode == voter_.constituencyCode)\r\n        );\r\n        _;\r\n    }\r\n\r\n    /**\r\n     * @notice To check if the user is Election Chief or not\r\n     */\r\n    modifier isElectionChief() {\r\n        require(msg.sender == electionChief);\r\n        _;\r\n    }\r\n\r\n    /**\r\n     * Dummy data for Candidates\r\n     * In the future, we can accept the same from construction,\r\n     * which will be called at the time of deployment\r\n     */\r\n    function initializeCandidateDatabase_() internal {\r\n        Types.Candidate[] memory candidates_ = new Types.Candidate[](14);\r\n\r\n        // Andhra Pradesh\r\n        candidates_[0] = Types.Candidate({\r\n            name: \"Hirok Raja\",\r\n            partyShortcut: \"TDP\",\r\n            partyFlag: \"https://www.albd.org/static/images/logo-en.png\",\r\n            nominationNumber: uint256(727477314982),\r\n            stateCode: uint8(10),\r\n            constituencyCode: uint8(1)\r\n        });\r\n        candidates_[1] = Types.Candidate({\r\n            name: \"Oniket Prantor\",\r\n            partyShortcut: \"YSRCP\",\r\n            partyFlag: \"https://www.albd.org/static/images/logo-en.png\",\r\n            nominationNumber: uint256(835343722350),\r\n            stateCode: uint8(10),\r\n            constituencyCode: uint8(1)\r\n        });\r\n        candidates_[2] = Types.Candidate({\r\n            name: \"Avengers\",\r\n            partyShortcut: \"TDP\",\r\n            partyFlag: \"https://www.albd.org/static/images/logo-en.png\",\r\n            nominationNumber: uint256(969039304119),\r\n            stateCode: uint8(10),\r\n            constituencyCode: uint8(2)\r\n        });\r\n        // candidates_[3] = Types.Candidate({\r\n        //     name: \"Anil Kumar Yadav\",\r\n        //     partyShortcut: \"YSRCP\",\r\n        //     partyFlag: \"https://res.cloudinary.com/dj9ttsbgm/image/upload/v1648101065/ysrcp_sas311.png\",\r\n        //     nominationNumber: uint256(429300763874),\r\n        //     stateCode: uint8(10),\r\n        //     constituencyCode: uint8(2)\r\n        // });\r\n\r\n        // // Bihar\r\n        // candidates_[4] = Types.Candidate({\r\n        //     name: \"Narendra Modi\",\r\n        //     partyShortcut: \"BJP\",\r\n        //     partyFlag: \"https://res.cloudinary.com/dj9ttsbgm/image/upload/v1648101064/bjp_nk4snw.png\",\r\n        //     nominationNumber: uint256(895363124093),\r\n        //     stateCode: uint8(11),\r\n        //     constituencyCode: uint8(1)\r\n        // });\r\n        // candidates_[5] = Types.Candidate({\r\n        //     name: \"Rahul Gandhi\",\r\n        //     partyShortcut: \"INC\",\r\n        //     partyFlag: \"https://res.cloudinary.com/dj9ttsbgm/image/upload/v1648101064/inc_s1oqn5.png\",\r\n        //     nominationNumber: uint256(879824052764),\r\n        //     stateCode: uint8(11),\r\n        //     constituencyCode: uint8(1)\r\n        // });\r\n        // candidates_[6] = Types.Candidate({\r\n        //     name: \"Tejaswi Yadav\",\r\n        //     partyShortcut: \"RJD\",\r\n        //     partyFlag: \"https://res.cloudinary.com/dj9ttsbgm/image/upload/v1648101065/1200px-RJD_Flag.svg_arrrvt.png\",\r\n        //     nominationNumber: uint256(994080299774),\r\n        //     stateCode: uint8(11),\r\n        //     constituencyCode: uint8(1)\r\n        // });\r\n        // candidates_[7] = Types.Candidate({\r\n        //     name: \"Arvind Kejriwal\",\r\n        //     partyShortcut: \"AAP\",\r\n        //     partyFlag: \"https://res.cloudinary.com/dj9ttsbgm/image/upload/v1648101065/aap_ujguyl.png\",\r\n        //     nominationNumber: uint256(807033055701),\r\n        //     stateCode: uint8(11),\r\n        //     constituencyCode: uint8(1)\r\n        // });\r\n        // candidates_[8] = Types.Candidate({\r\n        //     name: \"Jyoti Basu\",\r\n        //     partyShortcut: \"CPIM\",\r\n        //     partyFlag: \"https://res.cloudinary.com/dj9ttsbgm/image/upload/v1648101064/1024px-Cpim_party_symbol.svg_mu1gpp.png\",\r\n        //     nominationNumber: uint256(615325500020),\r\n        //     stateCode: uint8(11),\r\n        //     constituencyCode: uint8(1)\r\n        // });\r\n        // candidates_[9] = Types.Candidate({\r\n        //     name: \"Amit Shah\",\r\n        //     partyShortcut: \"BJP\",\r\n        //     partyFlag: \"https://res.cloudinary.com/dj9ttsbgm/image/upload/v1648101064/bjp_nk4snw.png\",\r\n        //     nominationNumber: uint256(611996864962),\r\n        //     stateCode: uint8(11),\r\n        //     constituencyCode: uint8(2)\r\n        // });\r\n        // candidates_[10] = Types.Candidate({\r\n        //     name: \"Priyanka Gandhi\",\r\n        //     partyShortcut: \"INC\",\r\n        //     partyFlag: \"https://res.cloudinary.com/dj9ttsbgm/image/upload/v1648101064/inc_s1oqn5.png\",\r\n        //     nominationNumber: uint256(866627241136),\r\n        //     stateCode: uint8(11),\r\n        //     constituencyCode: uint8(2)\r\n        // });\r\n        // candidates_[11] = Types.Candidate({\r\n        //     name: \"Lalu Yadav\",\r\n        //     partyShortcut: \"RJD\",\r\n        //     partyFlag: \"https://res.cloudinary.com/dj9ttsbgm/image/upload/v1648101065/1200px-RJD_Flag.svg_arrrvt.png\",\r\n        //     nominationNumber: uint256(765724506305),\r\n        //     stateCode: uint8(11),\r\n        //     constituencyCode: uint8(2)\r\n        // });\r\n        // candidates_[12] = Types.Candidate({\r\n        //     name: \"Manish Sisodia\",\r\n        //     partyShortcut: \"AAP\",\r\n        //     partyFlag: \"https://res.cloudinary.com/dj9ttsbgm/image/upload/v1648101065/aap_ujguyl.png\",\r\n        //     nominationNumber: uint256(897855877716),\r\n        //     stateCode: uint8(11),\r\n        //     constituencyCode: uint8(2)\r\n        // });\r\n        // candidates_[13] = Types.Candidate({\r\n        //     name: \"Prakash Karat\",\r\n        //     partyShortcut: \"CPIM\",\r\n        //     partyFlag: \"https://res.cloudinary.com/dj9ttsbgm/image/upload/v1648101064/1024px-Cpim_party_symbol.svg_mu1gpp.png\",\r\n        //     nominationNumber: uint256(463774295590),\r\n        //     stateCode: uint8(11),\r\n        //     constituencyCode: uint8(2)\r\n        // });\r\n\r\n        for (uint256 i = 0; i < candidates_.length; i++) {\r\n            candidate[candidates_[i].nominationNumber] = candidates_[i];\r\n            candidates.push(candidates_[i]);\r\n        }\r\n    }\r\n\r\n    /**\r\n     * Dummy data for Nid users\r\n     * In the future, we can have a an external API call to centralized aadhar DB\r\n     * https://ethereum.stackexchange.com/a/334\r\n     * https://docs.chain.link/docs/make-a-http-get-request/\r\n     */\r\n    function initializeVoterDatabase_() internal {\r\n        // Andhra Pradesh\r\n        // voter[uint256(482253918244)] = Types.Voter({\r\n        //     name: \"Suresh\",\r\n        //     nidNumber: uint256(482253918244),\r\n        //     age: uint8(21),\r\n        //     stateCode: uint8(10),\r\n        //     constituencyCode: uint8(1),\r\n        //     isAlive: true,\r\n        //     votedTo: uint256(0)\r\n        // });\r\n        // voter[uint256(532122269467)] = Types.Voter({\r\n        //     name: \"Ramesh\",\r\n        //     nidNumber: uint256(532122269467),\r\n        //     age: uint8(37),\r\n        //     stateCode: uint8(10),\r\n        //     constituencyCode: uint8(1),\r\n        //     isAlive: false,\r\n        //     votedTo: uint256(0)\r\n        // });\r\n        // voter[uint256(468065932286)] = Types.Voter({\r\n        //     name: \"Mahesh\",\r\n        //     nidNumber: uint256(468065932286),\r\n        //     age: uint8(26),\r\n        //     stateCode: uint8(10),\r\n        //     constituencyCode: uint8(1),\r\n        //     isAlive: true,\r\n        //     votedTo: uint256(0)\r\n        // });\r\n        // voter[uint256(809961147437)] = Types.Voter({\r\n        //     name: \"Krishna\",\r\n        //     nidNumber: uint256(809961147437),\r\n        //     age: uint8(19),\r\n        //     stateCode: uint8(10),\r\n        //     constituencyCode: uint8(2),\r\n        //     isAlive: true,\r\n        //     votedTo: uint256(0)\r\n        // });\r\n        // voter[uint256(908623597782)] = Types.Voter({\r\n        //     name: \"Narendra\",\r\n        //     nidNumber: uint256(908623597782),\r\n        //     age: uint8(36),\r\n        //     stateCode: uint8(10),\r\n        //     constituencyCode: uint8(2),\r\n        //     isAlive: true,\r\n        //     votedTo: uint256(0)\r\n        // });\r\n        voter[uint256(760344621247)] = Types.Voter({\r\n            name: \"Sabbir\",\r\n            nidNumber: uint256(760344621247),\r\n            age: uint8(42),\r\n            stateCode: uint8(10),\r\n            constituencyCode: uint8(2),\r\n            isAlive: true,\r\n            votedTo: uint256(0)\r\n        });\r\n        // Bihar\r\n        voter[uint256(908704156902)] = Types.Voter({\r\n            name: \"Rishikesh Das\",\r\n            nidNumber: uint256(908704156902),\r\n            age: uint8(25),\r\n            stateCode: uint8(11),\r\n            constituencyCode: uint8(1),\r\n            isAlive: true,\r\n            votedTo: uint256(0)\r\n        });\r\n        voter[uint256(778925466180)] = Types.Voter({\r\n            name: \"K.A Mukit\",\r\n            nidNumber: uint256(778925466180),\r\n            age: uint8(37),\r\n            stateCode: uint8(11),\r\n            constituencyCode: uint8(1),\r\n            isAlive: true,\r\n            votedTo: uint256(0)\r\n        });\r\n        voter[uint256(393071790055)] = Types.Voter({\r\n            name: \"Amirul Ifty\",\r\n            nidNumber: uint256(393071790055),\r\n            age: uint8(29),\r\n            stateCode: uint8(11),\r\n            constituencyCode: uint8(2),\r\n            isAlive: true,\r\n            votedTo: uint256(0)\r\n        });\r\n        // voter[uint256(983881786161)] = Types.Voter({\r\n        //     name: \"Pratik\",\r\n        //     nidNumber: uint256(983881786161),\r\n        //     age: uint8(40),\r\n        //     stateCode: uint8(11),\r\n        //     constituencyCode: uint8(2),\r\n        //     isAlive: true,\r\n        //     votedTo: uint256(0)\r\n        // });\r\n        // voter[uint256(756623869645)] = Types.Voter({\r\n        //     name: \"Aausi\",\r\n        //     nidNumber: uint256(756623869645),\r\n        //     age: uint8(85),\r\n        //     stateCode: uint8(11),\r\n        //     constituencyCode: uint8(1),\r\n        //     isAlive: false,\r\n        //     votedTo: uint256(0)\r\n        // });\r\n        // voter[uint256(588109459505)] = Types.Voter({\r\n        //     name: \"Pratiba\",\r\n        //     nidNumber: uint256(588109459505),\r\n        //     age: uint8(68),\r\n        //     stateCode: uint8(11),\r\n        //     constituencyCode: uint8(2),\r\n        //     isAlive: false,\r\n        //     votedTo: uint256(0)\r\n        // });\r\n        // // West Bengal\r\n        // voter[uint256(967746320661)] = Types.Voter({\r\n        //     name: \"Ruchika\",\r\n        //     nidNumber: uint256(967746320661),\r\n        //     age: uint8(26),\r\n        //     stateCode: uint8(11),\r\n        //     constituencyCode: uint8(1),\r\n        //     isAlive: true,\r\n        //     votedTo: uint256(0)\r\n        // });\r\n        // voter[uint256(727938171119)] = Types.Voter({\r\n        //     name: \"Rambabu\",\r\n        //     nidNumber: uint256(727938171119),\r\n        //     age: uint8(17),\r\n        //     stateCode: uint8(11),\r\n        //     constituencyCode: uint8(1),\r\n        //     isAlive: true,\r\n        //     votedTo: uint256(0)\r\n        // });\r\n        // voter[uint256(609015917688)] = Types.Voter({\r\n        //     name: \"Matajii\",\r\n        //     nidNumber: uint256(609015917688),\r\n        //     age: uint8(98),\r\n        //     stateCode: uint8(11),\r\n        //     constituencyCode: uint8(1),\r\n        //     isAlive: true,\r\n        //     votedTo: uint256(0)\r\n        // });\r\n        // voter[uint256(620107691388)] = Types.Voter({\r\n        //     name: \"Mamata\",\r\n        //     nidNumber: uint256(620107691388),\r\n        //     age: uint8(63),\r\n        //     stateCode: uint8(11),\r\n        //     constituencyCode: uint8(2),\r\n        //     isAlive: false,\r\n        //     votedTo: uint256(0)\r\n        // });\r\n        // voter[uint256(403561319377)] = Types.Voter({\r\n        //     name: \"Ravi Varma\",\r\n        //     nidNumber: uint256(403561319377),\r\n        //     age: uint8(42),\r\n        //     stateCode: uint8(11),\r\n        //     constituencyCode: uint8(2),\r\n        //     isAlive: true,\r\n        //     votedTo: uint256(0)\r\n        // });\r\n        // voter[uint256(837970229674)] = Types.Voter({\r\n        //     name: \"Rahul\",\r\n        //     nidNumber: uint256(837970229674),\r\n        //     age: uint8(56),\r\n        //     stateCode: uint8(11),\r\n        //     constituencyCode: uint8(2),\r\n        //     isAlive: true,\r\n        //     votedTo: uint256(0)\r\n        // });\r\n    }\r\n}\r\n",
  "sourcePath": "G:\\VotingSystem_V1\\sample-e-voting-system-ethereum\\blockchain\\contracts\\Ballot.sol",
  "compiler": {
    "name": "solc",
    "version": "0.8.17+commit.8df45f5f.Emscripten.clang"
  },
  "schemaVersion": "3.4.9",
  "updatedAt": "2023-01-16T16:58:00.974Z",
  "networkType": "ethereum",
  "devdoc": {
    "kind": "dev",
    "methods": {
      "constructor": {
        "details": "Create a new ballot to choose one of 'candidateNames'",
        "params": {
          "endTime_": "When the voting process will end",
          "startTime_": "When the voting process will start"
        }
      },
      "didCurrentVoterVoted(uint256)": {
        "details": "Know whether the voter casted their vote or not. If casted get candidate object.",
        "params": {
          "voterNidNumber": "NID number of the current voter"
        },
        "returns": {
          "candidate_": "Candidate details to whom voter casted his/her vote",
          "userVoted_": "Boolean value which gives whether current voter casted vote or not"
        }
      },
      "extendVotingTime(uint256,uint256)": {
        "details": "To extend the end of the voting",
        "params": {
          "currentTime_": "Current time that needs to be updated",
          "endTime_": "End time that needs to be updated"
        }
      },
      "getCandidateList(uint256)": {
        "details": "Get candidate list.",
        "params": {
          "voterNidNumber": "NID number of the current voter to send the relevent candidates list"
        },
        "returns": {
          "_0": "candidatesList_ All the politicians who participate in the election"
        }
      },
      "getResults(uint256)": {
        "details": "sends all candidate list with their votes count",
        "params": {
          "currentTime_": "Current epoch time of length 10."
        },
        "returns": {
          "_0": "candidateList_ List of Candidate objects with votes count"
        }
      },
      "getVotingEndTime()": {
        "details": "Gives ending epoch time of voting",
        "returns": {
          "endTime_": "When the voting ends"
        }
      },
      "isVoterEligible(uint256)": {
        "details": "Get candidate list.",
        "params": {
          "voterNidNumber": "NID number of the current voter to send the relevent candidates list"
        },
        "returns": {
          "voterEligible_": "Whether the voter with provided aadhar is eligible or not"
        }
      },
      "updateVotingStartTime(uint256,uint256)": {
        "details": "used to update the voting start & end times",
        "params": {
          "currentTime_": "Current time that needs to be updated",
          "startTime_": "Start time that needs to be updated"
        }
      },
      "vote(uint256,uint256,uint256)": {
        "details": "Give your vote to candidate.",
        "params": {
          "currentTime_": "To check if the election has started or not",
          "nominationNumber": "Nid Number of the candidate",
          "voterNidNumber": "Nid Number of the voter to avoid re-entry"
        }
      }
    },
    "version": 1
  },
  "userdoc": {
    "kind": "user",
    "methods": {},
    "version": 1
  }
}